{
  "contractName": "RecycoinFunds",
  "abi": [
    {
      "constant": false,
      "inputs": [],
      "name": "invest",
      "outputs": [],
      "payable": true,
      "stateMutability": "payable",
      "type": "function"
    },
    {
      "constant": true,
      "inputs": [],
      "name": "getBalance",
      "outputs": [
        {
          "internalType": "uint256",
          "name": "",
          "type": "uint256"
        }
      ],
      "payable": false,
      "stateMutability": "view",
      "type": "function"
    },
    {
      "constant": false,
      "inputs": [
        {
          "internalType": "uint256",
          "name": "amount",
          "type": "uint256"
        }
      ],
      "name": "withdraw",
      "outputs": [],
      "payable": true,
      "stateMutability": "payable",
      "type": "function"
    },
    {
      "constant": false,
      "inputs": [],
      "name": "transferToaddress",
      "outputs": [],
      "payable": true,
      "stateMutability": "payable",
      "type": "function"
    }
  ],
  "bytecode": "0x608060405234801561001057600080fd5b50610159806100206000396000f3fe60806040526004361061003f5760003560e01c806312065fe0146100445780632e1a7d4d1461006b578063b7fb98061461008a578063e8b5e51f14610092575b600080fd5b34801561005057600080fd5b5061005961009a565b60408051918252519081900360200190f35b6100886004803603602081101561008157600080fd5b503561009e565b005b6100886100dc565b610088610122565b4790565b6040516706f05b59d3b2000090910290339082156108fc029083906000818181858888f193505050501580156100d8573d6000803e3d6000fd5b5050565b6040517314f3ab065fb64dcf91845816c54a919b5c794ced9081906000906706f05b59d3b200009082818181858883f193505050501580156100d8573d6000803e3d6000fd5b56fea265627a7a72315820c57f2ec8c340417af53b01c6d3d9e3f309e8353c93a860adc2a3d1346cad468164736f6c63430005100032",
  "source": "pragma solidity ^0.5.0;\n\ncontract RecycoinFunds{\n    function invest() payable public{\n        \n    }\n    function getBalance() external view returns (uint256) {\n        return address(this).balance;\n        //return 10;\n    }\n    function withdraw(uint amount) public payable{\n        amount = amount * 500000000000000000;\n        msg.sender.transfer(amount);\n    }\n\n    // function transferToaddress(address payable addressToSend) public payable{\n    //     address payable add = address(uint160(addressToSend));\n    //     add.transfer(0.5 ether);\n    //     //amount * 500000000000000000\n    // }\n    function transferToaddress() public payable{\n        address payable add = address(0x14f3AB065FB64DCf91845816C54A919B5C794cEd);\n        add.transfer(0.5 ether);\n        //amount * 500000000000000000\n    }\n}",
  "sourcePath": "C:/Users/Satya/Desktop/Gagan/Blockchain/ZeroCarbon-main/contracts/RecycoinFunds.sol",
  "compiler": {
    "name": "solc",
    "version": "0.5.16+commit.9c3226ce.Emscripten.clang"
  },
  "schemaVersion": "3.4.1",
  "updatedAt": "2021-05-22T02:59:55.587Z",
  "devdoc": {
    "methods": {}
  },
  "userdoc": {
    "methods": {}
  }
}